{
  "_format": "hh-sol-artifact-1",
  "contractName": "WavePortal",
  "sourceName": "contracts/WavePortal.sol",
  "abi": [
    {
      "inputs": [],
      "stateMutability": "nonpayable",
      "type": "constructor"
    },
    {
      "inputs": [],
      "name": "totalWaves",
      "outputs": [
        {
          "internalType": "uint256",
          "name": "",
          "type": "uint256"
        }
      ],
      "stateMutability": "view",
      "type": "function"
    },
    {
      "inputs": [],
      "name": "wave",
      "outputs": [],
      "stateMutability": "nonpayable",
      "type": "function"
    }
  ],
  "bytecode": "0x608060405234801561001057600080fd5b5061005a6040518060400160405280601481526020017f48656c6c6f204a61636f622120497427732025730000000000000000000000008152503361005f60201b6101081760201c565b610234565b6100fd8282604051602401610075929190610172565b6040516020818303038152906040527f319af333000000000000000000000000000000000000000000000000000000007bffffffffffffffffffffffffffffffffffffffffffffffffffffffff19166020820180517bffffffffffffffffffffffffffffffffffffffffffffffffffffffff838183161783525050505061010160201b60201c565b5050565b60008151905060006a636f6e736f6c652e6c6f679050602083016000808483855afa5050505050565b610133816101be565b82525050565b6000610144826101a2565b61014e81856101ad565b935061015e8185602086016101f0565b61016781610223565b840191505092915050565b6000604082019050818103600083015261018c8185610139565b905061019b602083018461012a565b9392505050565b600081519050919050565b600082825260208201905092915050565b60006101c9826101d0565b9050919050565b600073ffffffffffffffffffffffffffffffffffffffff82169050919050565b60005b8381101561020e5780820151818401526020810190506101f3565b8381111561021d576000848401525b50505050565b6000601f19601f8301169050919050565b610492806102436000396000f3fe608060405234801561001057600080fd5b50600436106100365760003560e01c8063291bcab31461003b5780636fe15b4414610059575b600080fd5b610043610063565b6040516100509190610320565b60405180910390f35b6100616100ae565b005b60006100a66040518060400160405280601681526020017f5765206861766520256420746f74616c207761766573000000000000000000008152506000546101a4565b600054905090565b60016000808282546100c09190610357565b925050819055506101066040518060400160405280600c81526020017f257320697320776176656421000000000000000000000000000000000000000081525033610108565b565b6101a0828260405160240161011e9291906102c0565b6040516020818303038152906040527f319af333000000000000000000000000000000000000000000000000000000007bffffffffffffffffffffffffffffffffffffffffffffffffffffffff19166020820180517bffffffffffffffffffffffffffffffffffffffffffffffffffffffff8381831617835250505050610240565b5050565b61023c82826040516024016101ba9291906102f0565b6040516020818303038152906040527f9710a9d0000000000000000000000000000000000000000000000000000000007bffffffffffffffffffffffffffffffffffffffffffffffffffffffff19166020820180517bffffffffffffffffffffffffffffffffffffffffffffffffffffffff8381831617835250505050610240565b5050565b60008151905060006a636f6e736f6c652e6c6f679050602083016000808483855afa5050505050565b610272816103ad565b82525050565b60006102838261033b565b61028d8185610346565b935061029d8185602086016103e9565b6102a68161044b565b840191505092915050565b6102ba816103df565b82525050565b600060408201905081810360008301526102da8185610278565b90506102e96020830184610269565b9392505050565b6000604082019050818103600083015261030a8185610278565b905061031960208301846102b1565b9392505050565b600060208201905061033560008301846102b1565b92915050565b600081519050919050565b600082825260208201905092915050565b6000610362826103df565b915061036d836103df565b9250827fffffffffffffffffffffffffffffffffffffffffffffffffffffffffffffffff038211156103a2576103a161041c565b5b828201905092915050565b60006103b8826103bf565b9050919050565b600073ffffffffffffffffffffffffffffffffffffffff82169050919050565b6000819050919050565b60005b838110156104075780820151818401526020810190506103ec565b83811115610416576000848401525b50505050565b7f4e487b7100000000000000000000000000000000000000000000000000000000600052601160045260246000fd5b6000601f19601f830116905091905056fea2646970667358221220582af2330c2267464d8ca95f93a29ab8154d439ee2a1768fcfc56b04a96f0fa364736f6c63430008040033",
  "linkReferences": {},
  "deployedLinkReferences": {}
}